:020000040800F2
:10000000980A00209D010008753600087331000829
:10001000793300082D110008CD3D000800000000D4
:10002000000000000000000000000000273700086A
:1000300011120008000000002537000829370008C9
:10004000B7010008B7010008B7010008B7010008B0
:10005000B7010008B7010008B7010008B7010008A0
:10006000B7010008B7010008B7010008B701000890
:10007000B7010008B7010008B701000831110008F6
:10008000B70100083D110008B7010008B7010008DA
:10009000B7010008B7010008B7010008B701000860
:1000A000B7010008D1370008B7010008B701000800
:1000B000B7010008B7010008B7010008B701000840
:1000C000B7010008B7010008B7010008B701000830
:1000D000B7010008A13D0008AD3D0008B7010008C8
:1000E000B7010008B7010008B7010008B701000810
:1000F000B7010008B7010008B7010008B701000800
:10010000B7010008B7010008B7010008B7010008EF
:1001100019390008B7010008B7010008B701000845
:10012000B70100084911000855110008B70100087F
:10013000B7010008B7010008B7010008B7010008BF
:10014000B7010008B7010008B7010008B7010008AF
:10015000B7010008B701000861110008B93D0008A7
:10016000B7010008B7010008B7010008B70100088F
:10017000B7010008B7010008B7010008000000003F
:10018000B7010008B7010008DFF80CD000F066FDE9
:10019000004800470D470008980A0020064880479D
:1001A00006480047FEE7FEE7FEE7FEE7FEE7FEE75C
:1001B000FEE7FEE7FEE7FEE7C13700088901000819
:1001C0002DE9F05F0546002092469B46884606468C
:1001D000814640241BE0284641464746224600F01F
:1001E0000BFB53465A46C01A914110D3114618468C
:1001F000224600F0F2FA2D1A67EB01084F4622461C
:100200000120002100F0E9FA17EB00094E41201E01
:10021000A4F10104DFDC484631462A464346BDE8E6
:10022000F09F40EA01039B0703D009E008C9121FB1
:1002300008C0042AFAD203E011F8013B00F8013BA0
:10024000521EF9D27047D2B201E000F8012B491ECC
:10025000FBD270470022F6E710B513460A46044663
:100260001946FFF7F0FF204610BD10B5002200E050
:10027000521C835C8C5CA34201D1002BF8D1D8B214
:10028000E1B2401A10BD30B505460020034600E03B
:100290005B1C934205D2EC5CC85C201A01D1002C97
:1002A000F6D130BD0FB400B58DB010A909900B90F8
:1002B00000914FF0FF300A9000200C900548069006
:1002C000054807906A4609A80F9900F0B9FA0DB0E1
:1002D0005DF814FB5D0800087B0800082DE9FF5F4E
:1002E0001D464FF0FF3BD5E9014691465F464FF072
:1002F0000008A9697F1C01988847296A82468847B7
:100300000028F6D1BAF1FF3F0CD024F4C064002ECF
:1003100019DD600614D5BAF12B0F09D0BAF12D0FF3
:100320000ED103E0584604B0BDE8F09F44F4806469
:10033000A9697F1C01988847761E8246002E02DD3F
:10034000BAF1300F03D0B9F1000F26D032E0A9691D
:10035000761E44F400747F1C019888478246002E64
:1003600005DDBAF1780F06D0BAF1580F03D0B9F114
:10037000000F10D01EE0B9F1000F02D0B9F1100F3C
:1003800018D1A969761E24F400747F1C019888474F
:100390008246102002E0082000E00A20814609E0A1
:1003A00008FB0908A969761E44F400747F1C0198B3
:1003B00088478246002E05DD4946504600F02CFA5B
:1003C0000028EDDAE96901988847A00502D46FF0AA
:1003D0000100A8E7E00725D1600613D5600502D526
:1003E000C8F1000000E0404629680A1D2A6009683B
:1003F000220501D5087015E0220701D5088011E01B
:1004000008600FE02868011D29600068210502D5F9
:1004100080F8008006E0210702D5A0F8008001E006
:10042000C0F8008038467EE72DE9FF4F087883B09A
:100430009946FF2805D0491C2D2804D0002400200F
:1004400008E000200BE00124F9E700EB800003EB5B
:100450004000491C0B78FF2BF7D104B14042002328
:100460000293147819461D462D2C01D02B2C04D153
:10047000521C2D2C13D000240294AA461478FF2C71
:100480000FD00A25A3FB057801FB05814FF0000C76
:1004900003FB0C11521CE3194AEB0101EEE70124A6
:1004A000EAE7814453EA010002D019F5C87F06DA71
:1004B00003980021C0E9001107B0BDE8F08F0025C6
:1004C000AE4E2F46DFF8B882184600F06FFBCDE93C
:1004D0000001B9F1000002DAC9F1000400E00446AD
:1004E0000023A74A1AEB030B42EB045A12E0E00781
:1004F00007D02A4633463846414600F076FA07468A
:1005000088462A4633461046194600F06EFA0546DC
:100510000E466410002CEAD1DDE90001B9F1000FAC
:100520005A46534606DA00F0D2FA3A46434600F0FD
:10053000CEFA05E000F059FA3A46434600F055FA83
:10054000029A0AB181F00041039AC2E90001B3E7BF
:100550002DE9FF4F1F468DB0D7E901464FF0FF3818
:100560002E2045464FF000090B90B9696D1C0E987E
:100570008847396A824688470028F6D1BAF1FF3F9A
:100580000AD024F4D064002E11DDBAF12B0F08D06C
:10059000BAF12D0F0BD102E0404611B08DE744F4C3
:1005A0008064B9696D1C0E9888478246761E69463C
:1005B000600501D52D2000E02B208DF8000001F111
:1005C000010B0DF1200809E0B9696D1C0E988847F0
:1005D00082460F9844F40074761E0560002E02DDFA
:1005E000BAF1300FF0D00B998A453ED144F0800427
:1005F00006E00F99681CA9F1010944F40074086031
:10060000B9696D1C761E0E98884782463028F0D056
:100610002BE00B998A4505D1200603D444F08004D1
:10062000761E18E0504603F0C5FC08B30DF1130127
:10063000761E44F400748B4508D2AAF130000BF802
:10064000010B200607D5A9F1010003E0200602D422
:1006500009F101008146A00502D50F99681C0860C8
:10066000B9696D1C0E9888478246002ED1DC53E094
:10067000002E51DDBAF1650F02D0BAF1450F4BD112
:10068000A00549D5B9696D1C24F44074761E0E98F6
:1006900088478246002E0CDD2B2804D0BAF12D0F9E
:1006A00007D144F48074B9696D1C0E98884782465E
:1006B000761EE00501D52D2100E02B2108F8011B55
:1006C000CDF82C8021E00DF12901761E44F4007450
:1006D00088450CD2AAF1300010F0FF0088F8000025
:1006E00002D10B99884509D908F1010806E0E00517
:1006F00001D5244801E042F20F708146B9696D1CB2
:100700000E98884782460F980560002E04DD5046FB
:1007100003F050FC0028D6D1F9690E988847FF20D5
:100720008BF8000088F800000020069007904B46E8
:100730006A4608A906A8FFF777FEA00502D46FF065
:1007400001002AE714F0240F0AD0E00714D1DDE9F4
:1007500006123868031D3B600068C0E900120BE018
:10076000DDE9060100F05EFA0146E00704D13868D1
:10077000021D3A600068016028460EE70000144040
:100780000000F03FF1D8FFFF00F0004230F00040E1
:100790000AD0C10D01F56071C0F3160042EA0151A3
:1007A000C20840071143704700200146704730B52A
:1007B0000B46014600202022012409E021FA02F51F
:1007C0009D4205D303FA02F5491B04FA02F52844B9
:1007D000151EA2F10102F1DC30BD202A04DB203A13
:1007E00000FA02F1002070479140C2F1200320FA84
:1007F00003F3194390407047202A04DB203A21FA82
:1008000002F00021704721FA02F3D040C2F1200229
:1008100091400843194670473A2800D2303820F0FA
:100820002002412A01D3A2F13700884201D34FF0C0
:10083000FF30704702681144137801601846704712
:10084000D1600449516104491162002111611146CE
:1008500000F02EBA35080008A50C0008426842B125
:10086000016811F8013B23B1521EC0E9001218467D
:1008700070470121C160881E704742685AB1C36841
:10088000016843B983688B4205D0491E521CC0E9F8
:100890000012002070474FF0FF3070472DE9FE4FE7
:1008A000804681EA0300C00F0C46009021F0004111
:1008B00023F00045B8EB0200A94105D2404621468D
:1008C00090461C460B46024623F00040104347D09A
:1008D000270DC7F30A00C3F30A510290401A019092
:1008E00040286BDAC3F3130040F4801B0098924653
:1008F00020B10023D2EB030A63EB0B0B019859469E
:10090000C0F140025046FFF768FF06460D465046CC
:100910005946019A00F0B4F910EB08006141002437
:1009200087EA115284EAE7731A4340D0009A62B30F
:10093000019A012A4FEA075215DC001B61EB020104
:100940004FF0004202EA0752CDE90042001C41F597
:10095000801132462B4600F087FB03B0BDE8F08FD4
:1009600040462146F9E7001B61EB0201001C41F5FE
:10097000801300185B412018A2F5001747EB030114
:1009800040EAD570B6196D4111E06D084FEA3606A0
:1009900045EAC0754FEA0752001B61EB0201001CDB
:1009A00041F5801149084FEA3000001951413246A3
:1009B0002B4603B0BDE8F04F00F047BB0098012282
:1009C00040000023D0EB020263EBE0730098214665
:1009D0004FEAE074B8EB000061EB0401E9E783F053
:1009E00000435BE781F0004158E72DE9FE4F81EAC3
:1009F000030404F0004421F0004100944FF0000B88
:100A000023F0004350EA01045ED052EA03045BD0B5
:100A1000C3F30A54C1F30A552C44A4F2F3340194ED
:100A2000A0FB0254C1F3130141F48011C3F313037B
:100A300043F4801301FB024400FB034E840A970A2F
:100A400044EA815447EA8357A4FB076802958D0A5C
:100A500005FB07854FEA932C04FB0C542705029DE8
:100A60004FEA065847EA1637B5EB08056EEB070C58
:100A7000870E920E47EA811742EA8312A7FB020112
:100A8000B6EB0B0164EB00042B0D43EA0C335E184C
:100A900044EB1C50DA465146E7FB0201C5F3130450
:100AA0004FEA0B3343EA14534FEA0432019C43EA02
:100AB0000603A4F10C040294009CCDE900B400F0FC
:100AC000D3FA03B0BDE8F08F00200146F9E72DE925
:100AD000F04D81EA030404F0004B21F00045144678
:100AE0004FF0000A23F0004150EA050220D054EAFA
:100AF00001021DD0C5F30A570246C5F31303C1F323
:100B00001300C1F30A5640F4801543F48013A7EB99
:100B10000608101BD64608F2FD3873EB050002D319
:100B200008F1010801E092185B41B8F1000F03DA07
:100B300000200146BDE8F08D00204FF480110646EC
:100B400084460EE0171B73EB050705D3121B63EBFE
:100B5000050306434CEA010C49084FEA300092189D
:100B60005B4150EA0107EDD152EA030012D082EA5C
:100B7000040083EA0501084305D0101BAB4106D2EF
:100B80000122002306E000224FF0004302E06FF054
:100B9000010253101AEB06004CEB085110EB0A004F
:100BA00041EB0B01BDE8F04D00F04FBA0EB540F23D
:100BB000334202920022CDE90022134600F054FA9B
:100BC00003B000BDC1F30A52C1F3130140F2FF3379
:100BD00041F480119A4202DA00200146704740F247
:100BE00033439A42A2F2334202DC5242FFF704BE80
:100BF000FFF7F3BD30B5041E71F1000404DB4FF0C4
:100C00000044404264EB0101141E73F1000405DB53
:100C10001C464FF00043524263EB0403994208BF65
:100C2000904230BD01F0004330B421F0004150EA61
:100C3000010206D00A0DA2F56072C1F31301002A69
:100C400002DC30BC00207047440F44EAC104C100FC
:100C5000E01830BC00EBC25000F0C0B9064C074DA4
:100C600006E0E06840F0010394E80700984710347C
:100C7000AC42F6D3FFF78CFAAC480008CC48000829
:100C8000202A06DBCB17203A41FA02F043EAE07350
:100C900006E041FA02F3D040C2F12002914008433D
:100CA00019467047C0B24FF4F05100F02BBA000063
:100CB0002DE9F34F8BB04FF0000801F10C000C460A
:100CC0004FF0010B46460DF1080A019062690121BF
:100CD00001989047051E2DD0252D2CD0216A8847DC
:100CE000C0B16269012101989047216A88470028B4
:100CF000F7D1411E62690198904700E0761CA16916
:100D00000B988847216A88470028F7D1E1690B983A
:100D10008847DBE7A1690B9888470746A84201D1BD
:100D2000761CD3E7E1690B9888477F1C02D1B8F1A4
:100D3000000F6FD046E1002762693D4639460198B1
:100D400090472A2804D16269012101989047012522
:100D5000DFF884926269012101989047A0F1300187
:100D60000A290AD24F45E5DC07EB870100EB410772
:100D7000303FDFD445F01005ECE7E90601D46FF011
:100D800000476C280AD04C2814D0682815D06A284F
:100D90000DD074281CD07A281AD01DE06269012178
:100DA000019890476C2802D045F0040514E045F006
:100DB00002050DE045F020050AE062690121019875
:100DC0009047682802D045F0080505E045F4006525
:100DD0006269012101989047C4E9015765283DD017
:100DE00019DC58287AD00CDC452837D004DC2528BB
:100DF00026D0412831D131E046282FD047282CD1A8
:100E00002CE05B2877D0612828D063287CD0642828
:100E100023D15AE0D0E06F2848D008DC66281DD0E6
:100E200067281BD0692821D06E2816D127E07028AA
:100E300045D0732868D0752847D078280DD14DE06B
:100E4000A1690B988847054625283FF469AFE169F9
:100E50000B9888476D1C3FF46AAFB3E023466A469F
:100E60006FF001000B99FFF773FB9EE045F0400027
:100E70006060A80723464FF0000236D43EE0E80742
:100E80007FF447AF2068011D21600068290501D566
:100E900006701BE7290701D5068017E7A90703D5C8
:100EA000F117C0E9006111E706600FE745F0400067
:100EB0006060A80723464FF0080216D41EE040F6F3
:100EC0000E0125EA0100606016E045F04000606018
:100ED000A80723464FF00A0207D40FE045F0400070
:100EE0006060A80708D5234610226FF001000B9917
:100EF000AFF3008059E007E0234610226FF00100B5
:100F00000B99FFF7EBF950E04FF000094F464B46C5
:100F1000632802D05B2806D040E0E80601D4012017
:100F2000A06001273AE062690121019890475E289C
:100F300005D14FF00109626949460198904721693E
:100F400039B900210A46534643F82120491C082993
:100F5000FADBB0B3216969B9C11700EBD162531153
:100F60000AEB830122F01F02821A01200B689040D5
:100F700003430B6062690121019890475D28E8D125
:100F8000B9F1000F09D00020514651F82020D2437A
:100F900041F82020401C0828F7DB02AB22460097CE
:100FA0006FF001000B99AFF3008000280CDA401CB1
:100FB00008D1BBF1000F05D04FF0FF300DB0BDE8F8
:100FC000F08FFFE74046F9E7E90701D108F1010892
:100FD00006444FF0000B79E6CCCCCC0C0029A8BF1E
:100FE0007047401C490008BF20F00100704710B452
:100FF000B0FA80FC00FA0CF050EA010404BF10BC07
:10100000704749B1CCF1200421FA04F411FA0CF133
:1010100018BF012121430843A3EB0C01CB1D4FEA6C
:1010200000614FEA102042BF002010BC704700EB67
:10103000C35010440029A4BF10BC7047401C490095
:1010400008BF20F0010010BC704710B5141E73F1EA
:10105000000408DA401C41F1000192185B411A4378
:1010600001D120F0010010BD2DE9F04D92469B46C4
:1010700011B1B1FA81F202E0B0FA80F2203290466A
:10108000FFF7ABFB04460F4640EA0A0041EA0B01BA
:1010900053465A46084313D0114653EA010019D06B
:1010A000C8F140025046FFF7A7FB05460E465046E2
:1010B00059464246FFF791FB084305D0012004E062
:1010C00020463946BDE8F08D0020054346EAE0762B
:1010D0002C4337430A986305E40AA0EB080000227A
:1010E000FD0A44EA47540A3002D500200146E9E7E8
:1010F000010510196941DDE9084500196941BDE89C
:10110000F04DA2E77F2801D9002208E0064A02EB51
:101110005002C007127800D1120902F00F0201201C
:1011200090400840704700006C480008FEE700004F
:10113000014800F07FBC0000B8010020014800F029
:1011400079BC0000D8020020014800F073BC000008
:1011500038030020014800F06DBC00001802002098
:10116000014800F067BC00007802002001681823E5
:10117000CAB2103AB2FBF3F2054B6FF30901032A2E
:101180009B5CC36500D9091D816508467047000056
:101190004C48000810B5014600208B698A6A4FF060
:1011A000C07453B1B3F5005F15D072B1012A0CD0F1
:1011B000022A0AD0032A09D104E01AB1012A06D072
:1011C000022A03D1C96AC90100D5012010BDC96A2C
:1011D000A142FAD010BD002AF7D0012AF2D0022A8B
:1011E000F3D0032AF3D010BD30B50468256825F488
:1011F00080252560046863608368402B036803D002
:1012000099600068C26030BD9A600068C16030BDFE
:1012100070471FB5002400948DF80010F3218DF85D
:101220000110AB218DF8021001948DF804306B2170
:101230008DF803208DF80510029403944FF47A730F
:101240000622694601F02BFF1FBD1FB50023009346
:101250008DF80010FE218DF8011098218DF80210F4
:1012600001936B21029303938DF803208DF80410F2
:101270004FF47A730522694601F011FF1FBD7FB557
:10128000002600968DF80010F6218DF80110DDE99A
:10129000084501968DF80220190A8DF804308DF862
:1012A00003108DF805408DF806506B218DF807105E
:1012B000029603964FF47A730822694601F0EFFE16
:1012C0007FBD72B6FEE70000D0ED040AB0EEC02A82
:1012D00012EE102A30EE600A6D4BF0EEC02ADFED00
:1012E0006D0A9FED6D0AD0ED001A90ED011A6B4961
:1012F0009A4204DD71EE801AC0ED001A27E091EDEC
:10130000073AB4EEC32AF1EE10FA04D271EEC01A15
:10131000C0ED001A25E091ED042AF4EEC21AF1EEB8
:1013200010FA02DD71EEC01A08E091ED042AF4EE25
:10133000C21AF1EE10FA03D271EE801AC0ED001A53
:10134000D1ED051AB4EEE11AF1EE10FA02DD71EEFC
:10135000600A08E0D1ED051AB4EEE11AF1EE10FAD8
:1013600003D271EE200AC0ED010A12EE902A4C4B16
:10137000D0ED020A9A4202DD30EE800A08E091EDDB
:10138000061AF4EEC10AF1EE10FA40DD30EEC00AA2
:1013900080ED020AD0ED000A91ED041A9FED410A9A
:1013A00031EE001AF4EEC10AF1EE10FA05DDD1EDCE
:1013B000040A70EE800AC0ED000A91ED041A31EEC5
:1013C000401AF4EEC10AF1EE10FA05D2D1ED040A8A
:1013D00070EEC00AC0ED000AB0EE601ADFED320A0E
:1013E000B5EEC01AF1EE10FA01D2C0ED000A91ED8F
:1013F000052A9FED2E1AD0ED011A32EE012AF4EEE5
:10140000C21AF1EE10FA0ADCB0EE611A0DE091EDAD
:10141000061AF4EEC10AF1EE10FAADD3BAE7D1ED37
:10142000051A31EE811A80ED011AB5EEC01AF1EEFF
:1014300010FA01D2C0ED010AD1ED061A90ED021AA0
:1014400071EE801AB4EEE11AF1EE10FA05DD91EDBD
:10145000061A31EE001A80ED021AD1ED061A71EE6D
:10146000C01AB4EEE11AF1EE10FA02D3B0EE410A5E
:1014700005E091ED061A31EE400A80ED020AB5EE64
:10148000C00AF1EE10FA01D2C0ED020A7047000066
:101490000000A0426F12833A6F12033B2800002025
:1014A00000007041CDCCCC3D00000000CDCC4C3DC7
:1014B0002DE9F041454C2DED048BB0EE609AF0EE35
:1014C000409A6078424E434FDFF80C810125E8B125
:1014D00000F02CFD6060257094ED020A9FED3F8ABC
:1014E000B1EE400AF0EE488AF4EEC09AF1EE10FA3E
:1014F00011DD94ED020AF4EEC09AF1EE10FA0AD270
:101500003748B0EE480A80ED050A10E00020307040
:101510003870404655E0B0EE690A3148FFF7D4FE16
:10152000B0EE690A2E4802F0A6F8F0EE408A94ED7B
:10153000020AB1EE400AB4EEC09AF1EE10FA0DDDE7
:1015400094ED020AB4EEC09AF1EE10FA06D22448E5
:10155000B0EE480A203080ED050A0DE02048B0EEDC
:10156000490A2030FFF7B0FE1D48B0EE490A20308E
:1015700002F081F8B0EE408A94ED080ADFED1A0A15
:101580009FED181AB1EE682A20EE200AF1EE481AF3
:1015900002EE010A84ED080A94ED092ABDEEC00AA4
:1015A00062EE200A10EE100A41EE810AC4ED090A2B
:1015B0003070BDEEE00A10EE100A387088F8005066
:1015C0000A480570BDEC048BBDE8F08128000020BE
:1015D00000000020010000200200002000000000A8
:1015E00058060020CDCCCC3E9A99193F030000202C
:1015F00010B51F4CB3EE0E2A2DED028B9FED1B8A0A
:1016000094ED061AD4ED050AF0EE481A94ED040A9A
:10161000184802F073F81748B3EE0E2AF0EE481A95
:1016200094ED061AD4ED050A94ED040A203002F078
:1016300065F801F0A3FE00206070B1EE040A84EDAD
:10164000020A3220E0609FED0C0A84ED040A9FED4F
:101650000B0A84ED050A9FED0A0A84ED060AB3EE33
:101660000E0A84ED070ABDEC028B10BD0000C842D3
:1016700028000020580600209A99193ECDCC4C3DF8
:101680008FC2F53D10B50A4C207800280FD001F02C
:10169000CBFE084802F03AF80648203002F036F84F
:1016A00000202070BDE8104003A002F091BB10BDE7
:1016B00028000020580600205B47696D62616C209D
:1016C0005761726E696E675D205461726765742040
:1016D0004C6F73742120526573657420466C6F776C
:1016E0002E0D0A0010B5094880ED020A90ED020A9D
:1016F00010EE100AFFF748F841EC100BBDE810405F
:1017000053EC102B02A002F063BB00002800002065
:101710005B47696D62616C5D20446561647A6F6EE0
:1017200065203D20252E32660D0A000010B50948BF
:1017300080ED070A90ED070A10EE100AFFF724F873
:1017400041EC100BBDE8104053EC102B02A002F04E
:101750003FBB0000280000205B47696D62616C5D43
:1017600020536D616C6C20457272205468726573F1
:10177000686F6C64203D20252E31660D0A00000044
:1017800010B5094880ED060A90ED060A10EE100A21
:10179000FEF7FAFF41EC100BBDE8104053EC102BA4
:1017A00002A002F015BB0000280000205B47696D15
:1017B00062616C5D204B442042617365203D2025B1
:1017C0002E33660D0A00000010B5094880ED050AA9
:1017D00090ED050A10EE100AFEF7D6FF41EC100B53
:1017E000BDE8104053EC102B02A002F0F1BA00004B
:1017F000280000205B47696D62616C5D204B4920C9
:1018000042617365203D20252E33660D0A000000DD
:1018100010B5094880ED040A90ED040A10EE100A94
:10182000FEF7B2FF41EC100BBDE8104053EC102B5B
:1018300002A002F0CDBA0000280000205B47696DCD
:1018400062616C5D204B502042617365203D202514
:101850002E33660D0A00000070B50E4D6870687872
:1018600020B10DA0BDE8704002F0B2BA1A480024C1
:1018700004701A4804701A4901200870194801F0D0
:1018800045FF1848203001F041FF01F0CDFD2C70DC
:1018900015A0E7E7280000205B47696D62616C20B6
:1018A00053746174655D20535441525420416374F4
:1018B000697665212050494420636C6F7365642DFF
:1018C0006C6F6F7020636F6E74726F6C20656E61E9
:1018D000626C65642E0D0A000000002001000020EB
:1018E00002000020580600205B47696D62616C2091
:1018F00053746174655D2053544F50204163746983
:101900007665212050494420616E64204D6F746FCC
:10191000727320666F7263656420746F20302E0DC1
:101920000A0000000249C860C96802A002F050BA6B
:10193000280000205B47696D62616C5D2054696D11
:10194000656F7574203D202575206D730D0A0000AC
:1019500010B5094C607800280DD0207800280AD0F6
:1019600000F0E4FA6168401AE168884203D9BDE8F2
:101970001040FFF787BE10BD280000202DE9F04180
:101980000446876D00F0D2FA064694F8350000252B
:10199000022806D08020606584F834500120BDE81C
:1019A000F0812068016821F016010160206841691A
:1019B00021F080014161206C08B9A06C20B1206841
:1019C000016821F0080101602068016821F001012F
:1019D00001600CE000F0AAFA801B052807D920203E
:1019E0006065032084F8350084F83450D7E7206818
:1019F0000068C007EED194F85C103F208840B860C2
:101A0000012084F8350084F834500020C7E790F8AE
:101A10003510022903D0802141650120704705213E
:101A200080F835100068016821F001010160002094
:101A3000704700002DE9F84304464FF00009CDF847
:101A4000009063484FF41651A56D0068B0FBF1F7A4
:101A50002E6894F85C10082000FA01F131420FD092
:101A600021680A6852070BD50A6822F004020A604E
:101A700094F85C108840A860606D40F001006065DB
:101A800094F85C104FF0010808FA01F0304208D0D9
:101A900021684969090604D5A860606D40F002001C
:101AA000606594F85C1004208840304208D02168BA
:101AB0000968890704D5A860606D40F0040060657E
:101AC00094F85C1010208840304218D021680968D2
:101AD000090714D5A86020680168490304D5006887
:101AE000000308D5A16C07E00168C90503D40168AB
:101AF00021F008010160216C09B12046884794F863
:101B00005C1020208840304231D021680968C90625
:101B10002DD5A86094F8350005282068016806D006
:101B2000490347D5006800031DD4616C1CE021F017
:101B3000160101602068416921F080014161206C3B
:101B400008B9A06C20B12068016821F0080101608B
:101B500094F85C103F208840A86084F8358084F8B1
:101B60003490216D1FE0E16B09B120468847606D1C
:101B700000282BD0606DC00714D0052084F83500F4
:101B80002068016821F0010101600098401C00906C
:101B9000B84203D820680068C007F6D184F83580C1
:101BA00084F83490E16C002910D001B02046BDE8E3
:101BB000F04308470168C905D5D4016821F0100138
:101BC000016084F8358084F83490CCE7BDE8F88370
:101BD000100000202DE9F041044600F0A7F9064668
:101BE0005CB1022084F83500002584F83450206868
:101BF000016821F0010101600DE00120BDE8F081E4
:101C000000F094F9801B052805D920206065032089
:101C100084F83500F2E720680068C007F0D1226838
:101C2000116820480140D4E901031843D4E9033680
:101C30003343184363691843A3691843E36918439E
:101C4000236A18430843616A042903D1D4E90B13BA
:101C500019430843106020684069666A20F0070154
:101C600030460E43012704280CD1A06A0643E06ADF
:101C700040B12046FFF78EFA20B14020606584F81D
:101C80003570BAE7206846612046FFF76FFA94F88E
:101C90005C203F2191408160656584F835700020AB
:101CA000ACE700003F8010F02DE9F0410446866D5E
:101CB00090F83400002501280DD0012084F834006C
:101CC00094F835700020012F07D084F834000225E5
:101CD0002846BDE8F0810220FBE7022784F8357032
:101CE00060652046FFF780FA94F85C103F2088403A
:101CF000B0602068016841F016010160206C20B1DD
:101D00002068016841F0080101602068016841F025
:101D100001010160DCE7000070B5044600F006F93F
:101D20000546601C02D004480078044400F0FEF828
:101D3000401BA042FAD370BD040000202DE9F84FEB
:101D4000DFF8BCA10022012503264FF00F090AF19C
:101D5000040BAAF1040E00BF0B6805FA02F423403D
:101D6000A34270D10F7907F00307012F01D0022F92
:101D700016D187684FEA420806FA08FC27EA0C07E2
:101D8000D1F80CC00CFA08FC4CEA070CC0F808C0EB
:101D90004768A7430C79C4F3001494403C43446063
:101DA0000C79E443A4070AD0C4684FEA420C06FA4F
:101DB0000CF7BC438F6807FA0CF72743C7600C7910
:101DC00004F00304022C12D1D40800EB840CDCF8DC
:101DD00020405707FF0E09FA07F824EA0804D1F853
:101DE000108008FA07F848EA0408CCF82080046854
:101DF0004FEA420C06FA0CF7BC430F7907F00307D1
:101E000007FA0CF7274307604C6814F4403F70D082
:101E10003C4C276847F480472760246822F003077A
:101E200004F480440094384C07EB040CDCF80848B8
:101E300097074FEA177809FA08F7BC43334FB842BF
:101E400002D1002724E054E0314FB84201D10127EC
:101E50001EE0304FB84201D1022719E02E4FB842A0
:101E600001D1032714E02D4FB84201D104270FE020
:101E70002B4FB84201D105270AE02A4FB84201D1C1
:101E8000062705E0284FB84201D1072700E00827C0
:101E900007FA08F72743CCF80878DAF800405746E5
:101EA000D1F804C09C435FEACC2C00D51C433C60B5
:101EB000DBF800405F46D1F804C09C435FEA8C2CFD
:101EC00000D51C433C60DEF800407746D1F804C0E2
:101ED0009C435FEA8C3C00D51C433C60084F083FA4
:101EE0003C68D1F804C09C435FEACC3C00D51C435D
:101EF0003C60521C102AFFF42FAFBDE8F88F0000A1
:101F0000083C0140443802400030014000000240DB
:101F10000004024000080240000C02400010024091
:101F20000014024000180240001C02400148806872
:101F300070470000040000200248816802781144C4
:101F400081607047040000200B4810B5016841F41F
:101F500000710160016841F480610160016841F431
:101F600080710160032000F06FF80F2000F006F888
:101F700000F024F8002010BD003C024070B50D4D6B
:101F800004464FF47A712878B1FBF0F00A490968E9
:101F9000B1FBF0F000F00AFB48B9102C07D2002288
:101FA0002146501E00F030F800206C6070BD01200A
:101FB00070BD000004000020100000200A4808B591
:101FC000016841F480410160006800F480400090A5
:101FD0000548001F016841F080510160006800F071
:101FE0008050009008BD000044380240002809DB02
:101FF00000F01F02012191404009800000F1E02023
:10200000C0F8001170470000F0B40E4B1B680C467E
:10201000C3F30223C3F10705042D00D90425191DBC
:10202000072901D2002300E0DB1E012606FA05F194
:10203000491E214099409E40761E16403143F0BC17
:1020400001F0D6BE0CED00E0064900F0070208687A
:102050004FF6FF03184040EA0220034A104308608D
:10206000704700000CED00E00000FA052DE9F04794
:102070000E46050065D0DFF81481D8F80000F7B2ED
:1020800000F00700B04207D288F80070D8F80000CE
:1020900000F00700B04254D128683D4C810712D5AA
:1020A000400703D5206840F4E050206028780007FE
:1020B00003D5206840F4604020602068A96820F0C3
:1020C000F000084320602878C0072DD030496868A8
:1020D0000839012812D0022813D0032811D009682A
:1020E000890700292DDA216821F0030101432160CD
:1020F000FFF71CFF814641F2883A0EE00968890328
:10210000EFE709688901ECE7FFF710FFA0EB090191
:10211000514502D90320BDE8F0872068696800F0C6
:102120000C00B0EB810FEFD1D8F80010404601F061
:102130000701B14207D90770006800F00700B042FC
:1021400001D00120E7E72878400705D52068E96835
:1021500020F4E050084320602878000706D5206866
:10216000296920F4604040EAC100206000F038F89E
:102170002168084AC1F30311515CC8400649086050
:1021800006480068FFF7FAFE0020C4E7003C024062
:1021900008380240544800081000002008000020C1
:1021A0000448054900680968044AC1F38221515C6A
:1021B000C8407047100000200838024064480008FA
:1021C0000448054900680968044AC1F34231515C7A
:1021D000C8407047100000200838024064480008DA
:1021E000154810B5006810F00C02144813D04110C7
:1021F000042A0FD0082A0ED10F4C241F226823680E
:1022000002F03F025B0207D52068C0F38810A0FBF4
:10221000010106E0084610BD2168C1F38811A1FB49
:1022200000010023FDF7CCFF2168C1F30141491CE7
:102230004900B0FBF1F010BD083802400024F40062
:102240002DE9F84F04006ED02078DFF84C93C007DA
:10225000A9F104054AD009F104000168C1F3810124
:10226000012908D00068C0F3810002280AD1D9F8FA
:102270000000400206D52868800337D56068002832
:10228000E1D033E06068B0F5803F10D0B0F5A02F0A
:10229000286810D020F480302860286820F480203E
:1022A00028606068A8B1FFF741FE06460DE0286887
:1022B00040F48030F4E740F480202860F7E700BF66
:1022C000FFF734FE801B642873D828688003F7D595
:1022D0000CE0FFF72BFE064605E000BFFFF726FEE9
:1022E000801B6428F0D828688003F7D42078DFF8B2
:1022F000AC8280074FF0000A3ED5A748001D016858
:1023000011F00C0F08D00068C0F3810002280BD137
:10231000D9F80000400207D42868800716D5E06885
:10232000012800D112E033E1E068B8B10120C8F81B
:102330000000FFF7FBFD064605E000BFFFF7F6FDD6
:10234000801B0228C0D828688007F7D52868216933
:1023500020F0F80040EAC10028600DE0C8F800A0B5
:10236000FFF7E4FD064604E0FFF7E0FD801B0228CE
:102370001FD828688007F7D42078000722D5864F19
:1023800087486169703771B101210160FFF7CEFDA7
:10239000064604E0FFF7CAFD801B022809D838680A
:1023A0008007F7D50EE0C0F800A0FFF7BFFD064696
:1023B00005E082E0FFF7BAFD801B02287DD838686F
:1023C0008007F7D42078400768D5DFF8CCB1002724
:1023D0000BF13C0BDBF80000C0000BD4DBF8001065
:1023E00041F08051CBF80010DBF80000012700F02D
:1023F000805000906B4E3068C00510D4306840F4B7
:1024000080703060FFF792FD009005E0FFF78EFDD1
:102410000099401A022850D83068C005F6D55E4EA3
:10242000A0686C3601280FD00528306810D020F045
:1024300001003060306820F004003060A068B8B15E
:10244000FFF774FD00900FE0306840F00100F4E702
:1024500040F004003060F7E7FFF768FD0099411A8B
:1024600041F28830814266D830688007F4D50EE0AA
:10247000FFF75CFD009007E0FFF758FD0099411A57
:1024800041F28830814256D830688007F4D42FB1A9
:10249000DBF8001021F08051CBF80010A069C8B320
:1024A0003D49091D0968C1F3810102294AD002286A
:1024B000504607D0C8F8600000E03CE0FFF736FD6A
:1024C00004463BE04746C8F86000FFF72FFD06468C
:1024D00005E000BFFFF72AFD801B02282BD82868E3
:1024E0008001F7D4D4E907010843A16A2E4A4908BC
:1024F00002EB0141626A41EA8211084394F82C1010
:1025000040EA0161C9F8001001203866FFF70EFDAE
:10251000044606E03EE000BFFFF708FD001B02286E
:1025200009D828688001F7D534E000BFFFF7FEFC2A
:10253000001B022802D90320BDE8F88F286880011B
:10254000F4D427E00128F7D0D9F80000E26900F4BC
:10255000800191421CD1226A00F03F01914217D1C3
:1025600047F6C071626A0140B1EB821F10D1A26AC6
:102570004FF0FF3300F4403103EB5202B1EB024F56
:1025800006D194F82C1000F07060B0EB016F01D010
:102590000120D1E70020CFE7043802400000474285
:1025A000800E4742007000400000FFFF10B5401E43
:1025B000B0F1807F01D3012010BD4FF0E0246061B5
:1025C0000F21601701F014FC0020A061072020619A
:1025D000002010BD7047704770B590F83C20012A6C
:1025E00032D0012480F83C40022280F83D2003686C
:1025F0005A689D6822F070060A6832435A60134B8D
:1026000002689A4214D0B2F1804F11D0104B9A4216
:102610000ED0104B9A420BD00F4B9A4208D00F4B62
:102620009A4205D00E4B9A4202D00E4B9A4204D1E8
:10263000496825F080031943916080F83D400021EE
:1026400080F83C10084670BD022070BD00000140BB
:102650000004004000080040000C0040000401405D
:10266000004001400018004010B5040003D094F869
:102670003D0010B107E0012010BD002084F83C00AF
:10268000204600F01FF8022084F83D00211D20683C
:1026900001F0A4F8012084F8460084F83E0084F894
:1026A0003F0084F8400084F8410084F8420084F838
:1026B000430084F8440084F8450084F83D0000207D
:1026C00010BD000008B500680B49884212D10B48C4
:1026D000016841F0010101600068002200F0010082
:1026E000009011461920FFF78FFCBDE80840192023
:1026F000FFF77CBC08BD00000000014044380240E8
:1027000090F83D10012901D001207047022180F886
:102710003D100168CA6842F00102CA6000681149B0
:10272000884214D0B0F1804F11D00F4988420ED0AA
:102730000E4988420BD00E49884208D00D49884284
:1027400005D00D49884202D00C49884204D18168E5
:1027500001F00701062903D0016841F00101016081
:1027600000207047000001400004004000080040C5
:10277000000C0040000401400040014000180040EF
:1027800070B5044690F83C000025012817D00126BA
:1027900084F83C60022084F83D002068826822F0C2
:1027A000770222F47F4282600868502838D00DDC1E
:1027B00020284FD005DC90B3102811D14AE0022028
:1027C00070BD302846D040280AD13BE060282FD089
:1027D00070280DD0B0F5805F03D0B0F5005F12D047
:1027E000012584F83D60002084F83C00284670BD37
:1027F000CB68D1E90121206801F058F82068816890
:1028000041F0770109E0CB68D1E90121206801F0AE
:102810004DF82068816841F480418160E1E719E06A
:10282000CA684968206801F053F85021206806E022
:10283000CA684968206801F05CF86021206801F0EE
:102840003FF8CEE7CA684968206801F041F84021A6
:102850002068F4E7226801461046F0E770472DE94A
:10286000F04104460068C66805694FF00007A907F3
:1028700013D5B10711D5F91E016101202077206819
:1028800080698007204602D0FFF7E8FF04E000F0EF
:102890007EF8204600F07CF82777680716D5700789
:1028A00014D521686FF004000861022020772068A9
:1028B000806910F4407F204602D0FFF7CFFF04E08C
:1028C00000F065F8204600F063F82777280715D553
:1028D000300713D521686FF00800086104202077C5
:1028E0002068C0698007204602D0FFF7B7FF04E0E8
:1028F00000F04DF8204600F04BF82777E80616D593
:10290000F00614D521686FF01000086108202077C8
:102910002068C06910F4407F204602D0FFF79EFF78
:1029200004E000F034F8204600F032F82777E8079A
:1029300008D0F00706D021686FF00100086120463A
:1029400000F028F8280608D5300606D521686FF073
:10295000800008612046FFF73DFE680608D5700636
:1029600006D521686FF040000861204600F038F875
:10297000A8060AD5B00608D521686FF020000861C6
:102980002046BDE8F041FFF726BEBDE8F081704764
:102990007047000010B500680D49884217D1FEF756
:1029A000D7FF0C480178012911D1002101700A4894
:1029B000006800EE100A0948F8EEC00A0068BDE899
:1029C000104000EE100AB8EEC00AFEF771BD10BD4F
:1029D00000000140180000202400002020000020FA
:1029E0007047704710B504460068406994F841107C
:1029F000C0F3C010212911D180B12068143050E8F3
:102A0000001F21F0800140E80012002AF5D1A06BE0
:102A100008B1FEF7B3FF204601F029F820684069AD
:102A200094F84210C0F38010222911D180B120689F
:102A3000143050E8001F21F0400140E80012002A45
:102A4000F5D1E06B08B1FEF799FF204600F0E8FFF2
:102A5000002010BD70470000F8B501680446086802
:102A6000CA684B6910F00F0F4FF0000559D003F002
:102A7000010602F49077374365D0C10705D0D10530
:102A800003D5616C41F001016164410705D5D907A7
:102A900003D0616C41F002016164810705D5D9075B
:102AA00003D0616C41F004016164010707D502F0B5
:102AB0002001314303D0616C41F008016164616C15
:102AC00000293AD0800604D5900602D5204600F0B1
:102AD000DCFF20684069616CC0F38010090700D4F6
:102AE00060B3204600F09CFF20684069400621D575
:102AF0002068143050E8001F21F0400140E8001227
:102B0000002AF5D1E06BA8B172490165E06BFEF7D0
:102B10007EFF002811D0E06B016D01B0BDE8F040F0
:102B2000084783060FD593060DD52046BDE8F8402B
:102B300000F0ABBF2046FFF78DFFF8BD2046FFF742
:102B400089FF6564F8BD266B2023012E7ED1C60661
:102B50007CD5D6067AD508684868009048694FF059
:102B6000020640064DD5E26B106840684FF480774E
:102B70000004000C3AD0A18D814237D9E085D0699C
:102B8000B8422DD020680C3050E8001F21F480712D
:102B900040E80012002AF5D12068143050E8001FE8
:102BA00021F0010140E80012002AF5D1206814301C
:102BB00050E8001F21F0400140E80012002AF5D142
:102BC00084F84230256320680C3050E8001F21F063
:102BD000100140E80012002AF5D1E06BFEF7CEFEAE
:102BE0006663A08DE18D401A81B206E0A18D81421D
:102BF000A8D1D069B842A5D166632046FFF7F1FE9F
:102C0000F8BDA08DE18D401A81B2E08D0028F7D08B
:102C10000029F5D020680C3050E8002F22F4907283
:102C200040E80027002FF5D12068143050E8002F2D
:102C300022F0010240E80027002FF5D184F842304D
:102C4000256320680C3050E8002F00E006E022F0F9
:102C5000100240E80023002BF3D1CDE705062BD569
:102C6000150629D594F841002128C9D1A068B0F5EE
:102C7000805F01D12069B0B1206A411C21622168C6
:102C800000784860E08C401E0004000CE084B7D15E
:102C90002068C16821F08001C1602068C16841F0EE
:102CA0004001C160F8BD206A0088C0F30800486098
:102CB000206A801C2062E5E74006F3D55006F1D576
:102CC000CA68204622F04002CA6084F8413000F011
:102CD0004FFAF8BD2539000870B5040004D094F807
:102CE0004100002510B106E0012070BD84F840507D
:102CF000204600F023F8242084F841002068C168B1
:102D000021F40051C160204600F020FF20680169D5
:102D100021F4904101612068416921F02A0141615B
:102D20002068C16841F40051C1606564202084F8C6
:102D3000410084F842006563002070BD2DE9F04F2A
:102D400087B0054614216846FDF784FAA248A14BD6
:102D50001038D5F800C0DFF880E203210222DFF846
:102D60007CB20024061587154FF0400A4FF0006929
:102D70009C453CD1DEF800C04CF4002CCEF800C0DD
:102D8000DEF8003003F400230593036843F00103E9
:102D90000360006800F0010005908DE8160008202F
:102DA000CDE9031069465846FEF7C8FFDFF83482C4
:102DB0008B494046C0E90346C8F81440C8F818409B
:102DC00088E80206B101C8E90771C8F82440FEF797
:102DD00001FF08B1FEF775FAC5F83880002202211C
:102DE0003420C8F83850FFF70FF9342063E07A4BED
:102DF000DFF8F4811B1DC44562D1D3F800C04CF04C
:102E0000100CC3F800C01B6803F01003059303689F
:102E100043F001030360006800F0010005904FF4E7
:102E2000C0608DE815000720CDE9031069465846BB
:102E3000FEF784FFDFF8AC816C4908F1600840467A
:102E4000C8F80010C0E90194C0E90346C8F814406E
:102E50004FF44031C8F81840C8E90771C8F8244059
:102E6000FEF7B8FE08B1FEF72CFAC5F83C80C8F8AA
:102E70003850DFF870815D4908F1C008404678316C
:102E8000C0E90346C8F81440C0E90647C8F8204026
:102E900088E80206C8F82440FEF79CFE08B1FEF759
:102EA00010FAC5F83880002201212520C8F83850D2
:102EB000FFF7AAF82520FFF799F807B0BDE8F08FD3
:102EC000DFF82C81C4453FD1DEF800C04CF4003C53
:102ED000CEF800C0DEF8003003F400330593036839
:102EE00043F001030360006800F0010005900C202E
:102EF0008DE815000720CDE9031069465846FEF716
:102F00001DFFDFF8F080364940463031C0E9034606
:102F1000C8F81440C8F8184088E802064FF4803119
:102F2000C8E90771C8F82440FEF754FE08B1FEF75F
:102F3000C8F9C5F83880002202212620C8F8385088
:102F4000FFF762F82620B6E7DFF8AC80C445B4D1BD
:102F5000D3F800C04CF0200CC3F800C01B6803F08D
:102F600020030593036843F004030360006800F046
:102F700004000590C0208DE815000820CDE903105D
:102F800069461E48FEF7DAFEDFF86880174908F147
:102F9000600818394046C8F800108905C0E90114D6
:102FA000C0E90346C8F81440C0E90647C8F8204005
:102FB000C8F82440FEF70EFE08B1FEF782F9C5F806
:102FC0003C80002203214720C8F83850FFF71CF846
:102FD000472070E7004C00404038024000000240AB
:102FE00070600240B80100200010014040640240BF
:102FF00000440040D80200200014014000080240B4
:1030000090F84230202B01D00220704721B11AB134
:103010000023036300F020BE0120704790F8423087
:10302000202B01D00220704721B11AB10023036385
:1030300000F062BE0120704770B5006813498842F5
:1030400023D1134C0025E17824290CD02046114BC4
:103050008278407823290AD07AB13F280CD21954BB
:10306000401C607009E00120A070657005E022B18D
:103070001D54084800F0EAF9A570BDE87040044905
:103080000122C91C0448FFF7C9BF70BD00100140F0
:103090001800002018060020E000002070472DE9ED
:1030A000F843044690F84100984616460D462028FD
:1030B00002D00220BDE8F88385B17EB100206064B3
:1030C000212084F84100FEF731FFA6848146E68482
:1030D000A0682027B0F5805F02D003E00120E9E777
:1030E000206910B12E4600250EE000260CE080215C
:1030F000204600F01CFEA8B9C6B116F8010B2168E5
:103100004860E08C401EE084E08C4B464FF00002AB
:10311000CDF800800028EAD14FF04001204600F0B1
:1031200006FE40B184F841700320C3E735F8020B76
:10313000C0F30800E3E784F841700020BAE790F894
:103140004130202B01D00220704779B172B1016269
:103150008284C28400214164212180F841100068EA
:10316000C16841F08001C1600020704701207047B4
:103170007047FEE71D4808B5016841F48001016011
:10318000016801F480010091016841F400110160BF
:103190000068002200F40010009004210F20FEF7C8
:1031A00033FF0F20FEF722FF002204211120FEF73B
:1031B0002BFF1120FEF71AFF002204213920FEF711
:1031C00023FF3920FEF712FF002204213A20FEF7E8
:1031D0001BFF3A20FEF70AFF002204214620FEF7DB
:1031E00013FFBDE808404620FEF700BF303802401C
:1031F0000D4808B5016841F004010160016801F063
:1032000004010091016841F080010160016801F052
:1032100080010091016841F001010160006800F047
:103220000100009008BD00003038024010B586B0A3
:1032300000241848009401940294039404941449BF
:1032400005940160A721C0E9011442F20F71C0E9A1
:1032500003148021C0E90541FFF706FA08B1FEF723
:1032600030F84FF48050009069460A48FFF788FA1A
:1032700008B1FEF726F8049404A906480594FFF760
:10328000ABF9002801D0FEF71CF806B010BD000015
:1032900000000140500000200C4810B50A490160B0
:1032A0004FF4E1314160002181600C22C160C0E92E
:1032B00004128161C161FFF70FFD002803D0BDE852
:1032C0001040FDF7FEBF10BD004C004098000020EC
:1032D0000C4810B50A4901604FF4E131416000210A
:1032E00081600C22C160C0E904128161C161FFF7F5
:1032F000F3FC002803D0BDE81040FDF7E2BF10BD8D
:1033000000100140E00000200C4810B50A4901609F
:103310004FF4E1314160002181600C22C160C0E9BD
:1033200004128161C161FFF7D7FC002803D0BDE81A
:103330001040FDF7C6BF10BD00440040280100202A
:103340000C4810B50A4901604FF4E1314160002199
:1033500081600C22C160C0E904128161C161FFF784
:10336000BBFC002803D0BDE81040FDF7AABF10BD8C
:103370000014014070010020FEE7000010B501229A
:10338000002311460648FDF744FF012200231146A1
:103390000448FDF73EFFBDE8104000F045B80000CE
:1033A00028010020980000207CB56FF0630264289B
:1033B00001DD642002E0904200DA1046642901DD5C
:1033C000642102E0914200DA1146002801DB00226C
:1033D00002E00122404240B2002901DB002502E068
:1033E0000125494249B2642310FB03F3642093FB97
:1033F000F0F39BB211FB00F191FBF0F0002486B2D8
:103400000094012106480194FDF739FF00943346EA
:103410002A46012103480194FDF731FF7CBD0000DD
:10342000280100209800002010B500220121054845
:10343000FDF70BFF0022BDE8104001210248FDF717
:1034400004BF0000280100209800002038B5044681
:10345000014642A000F0BCFC48A12046FCF705FF55
:10346000002837D047A12046FCF7FFFE002830D0C7
:10347000032246A12046FCF706FF78B3032244A1AD
:103480002046FCF700FFA8B3032242A12046FCF728
:10349000FAFE80B3032240A12046FCF7F4FE58B3A5
:1034A00003223EA12046FCF7EEFE88B304223CA195
:1034B0002046FCF7E8FE00280AD16A463AA1201D02
:1034C000FCF7F0FE012803D19DED000AFEF72EF96E
:1034D00038BD0120BDE83840FEF7BEB96A4632A1CA
:1034E000E01CFCF7DFFE0128F2D19DED000AFEF79B
:1034F000F9F838BD01E00CE017E06A462BA1E01CAA
:10350000FCF7D0FE0128F4D10098FEF70BFAF0E7A3
:1035100017E06A4624A1E01CFCF7C4FE0128E8D1AC
:103520009DED000AFEF774F9E3E76A461EA1E01C70
:10353000FCF7B8FE0128DCD19DED000AFEF744F946
:10354000D7E76A4618A1E01CFCF7ACFE0128D0D1F1
:103550009DED000AFEF714F9CBE700005B50432015
:10356000436D642041636B5D2045786563757469C4
:103570006E673A2025730D0A0000000053544F5027
:10358000000000005354415254000000445A3D00D2
:10359000544F3D004B503D004B493D004B443D00D6
:1035A0005448533D000000002566000025750000CA
:1035B00010B5012208490948FFF730FD08480068A6
:1035C000C16841F01001C160BDE810404FF40072C5
:1035D00004490348FFF714BD1B000020E000002051
:1035E00070010020180400207CB51D4C2068016883
:1035F000C90633D501680025406800902046FFF7D2
:10360000F1F9E06B00684068C0F50074601E7F2827
:1036100016D2144801AB6A46055513A1FCF742FEC9
:1036200002280DD1124D0098A8600198E8600D495C
:103630002246A1F18000FCF7F4FDAC800120287047
:103640004FF4007421460748FCF704FE02B02246FE
:10365000BDE8704003490248FFF7D2BC7CBD0000C2
:103660007001002018040020522C25642C256400D1
:1036700018000020FEE780ED030A90ED051AF0EE39
:10368000400A31EE000A80ED050A90ED071AB4EE0B
:10369000C10AF1EE10FA06DCB1EE411AB4EEC10A2D
:1036A000F1EE10FA01D280ED051A90ED011AD0ED7D
:1036B000051A90ED000A90ED022A61EE211A90EDB4
:1036C000041A20EE200A30EEC11A30EE210A21EE53
:1036D000021A30EE010A90ED061AB4EEC01AF1EEAD
:1036E00010FA06D3B1EE411AB4EEC01AF1EE10FA98
:1036F00001DDB0EE410AC0ED040A7047C0ED061AC4
:1037000080ED072A80EC030AAFF300809FED040AE6
:1037100080ED030A80ED040A80ED050A7047000081
:103720000000000070477047FEF706BC30B593B04C
:1037300030216846FCF78EFD14210CA8FCF78AFDA9
:103740001D480025016841F080510160006800F0CB
:10375000805011901948016841F48041016000686F
:10376000022400F480401190012000900004019098
:103770008001CDE9064008AA0420A82182E81300B0
:103780000B906846FEF75CFD08B172B6FEE70CA927
:103790000F2081E831004FF4A0500F904FF480507B
:1037A000109005210CA8FEF761FC002801D072B62C
:1037B000FEE713B030BD000040380240007000400A
:1037C0000248016841F470010160704788ED00E033
:1037D0000148FFF744B8000050000020F0B502682F
:1037E000274B284D284E294F294C4FF0804C9842AA
:1037F00009D0604507D0A84205D0B04203D0B842F6
:1038000001D0A04204D122F0700E4A6842EA0E02B2
:1038100098421BD0604519D0A84217D0B04215D0AD
:10382000B84213D0A04211D01A4DA8420ED01A4D62
:10383000A8420BD0194DA84208D0194DA84205D076
:10384000184DA84202D0184DA84203D122F4407569
:10385000CA682A434D6922F080022A438D68C562F6
:103860000D688562984201D0A04201D109690163C7
:10387000016841F004010160012141610260F0BD75
:10388000000001400004004000080040000C00401F
:103890000004014000400140004401400048014054
:1038A00000180040001C00400020004010B5846853
:1038B00042EA032224F47F440A432243826010BD7B
:1038C000826822F070020A4342F00701816070476B
:1038D00010B5036A046A24F001040462846924F0C8
:1038E000F00444EA021423F00A020A4384610262EB
:1038F00010BD10B5036A046A24F0100404628469E0
:1039000023F0A00324F4704444EA023243EA011194
:103910008261016210BD00000148FFF79DB8000000
:103920009800002010B5806B0021C185FFF792F848
:1039300010BD70B5846B2068406994F84110C0F3E5
:10394000C0100025212904D118B1E584204600F0DB
:103950008EF82068406994F84210C0F38010222944
:1039600004D118B1E585204600F05AF8606C40F0AB
:10397000100060642046FFF76DF870BD10B5014679
:10398000806B096809684FF00002C9052ED4C28512
:1039900001680C3151E8003F23F4807341E80034A2
:1039A000002CF5D10168143151E8003F23F00103E8
:1039B00041E80034002CF5D10168143151E8003F92
:1039C00023F0400341E80034002CF5D1202180F899
:1039D0004210016B012909D101680C3151E8003F07
:1039E00023F0100341E80034002CF5D14263016B51
:1039F000012902D0FFF720FB10BD818DFEF7F1FFFA
:103A000010BD10B5806B01214163016B012902D00B
:103A1000FFF744FB10BD818D4908FEF7E2FF10BDA2
:103A200001680C3151E8002F22F4907241E8002324
:103A3000002BF5D10168143151E8002F22F001026A
:103A400041E80023002BF5D1016B012909D1016860
:103A50000C3151E8002F22F0100241E80023002B26
:103A6000F5D1202180F842100021016370470168E0
:103A70000C3151E8002F22F0C00241E80023002B56
:103A8000F5D1202180F84110704708B590F8421018
:103A9000222901D0022008BD82684FF480539A4247
:103AA00001D1016921B1816A9A421BD04AB10AE071
:103AB0000268816A5268C2F308020A80816A891C1E
:103AC00008E0026972B10268526802F07F020A706F
:103AD000816A491C8162C18D491E0904090CC18596
:103AE00003D01BE002685268F1E70168CA6822F05F
:103AF0002002CA600168CA6822F48072CA60016844
:103B00004A6922F001024A61202180F84210002116
:103B10004163026B012A03D0FFF78EFA002008BD33
:103B2000016301680C3151E8002F22F0100241E8D6
:103B30000023002BF5D101680A68D20602D50A6875
:103B400049680091818DFEF74CFFE7E770B50446A8
:103B500000680169E26821F4405111430161216963
:103B6000A068E26908436169114308432168CA6893
:103B700049F20C639A430243CA6020684169A26912
:103B800021F440711143416131492068884202D0DB
:103B90003049884202D1FEF713FB01E0FEF700FB3B
:103BA000E2690023192164253226B2F5004F6268CC
:103BB00028D0A0FB0101930F9200FCF701FB014606
:103BC000B0FBF5F06FF01802504301EB800006EBFC
:103BD0000010B0FBF5F000F0F002B1FBF5F002EBE5
:103BE0000012B1FBF5F06FF01803584301EB8000B1
:103BF00006EB0010B0FBF5F000F00F002168104458
:103C0000886070BDA0FB010192185B41FCF7D8FAF7
:103C10000146B0FBF5F00201B1FBF5F06FF01803BF
:103C2000584301EB800006EBC000B0FBF5F000F05C
:103C3000F80002EB4002B1FBF5F0584301EB8000C5
:103C400006EBC000B0FBF5F000F00700D6E700007F
:103C5000001001400014014038B58162044682859D
:103C6000002013466064222284F84220E56B1F4A3C
:103C7000EA63E56B1E4A2A64E56B1E4AEA64E26B5E
:103C800010650A462168E06B091DFEF70DF830B19A
:103C900010206064202084F84200012038BD206894
:103CA000016840680090206948B120680C3050E8F5
:103CB000001F41F4807140E80012002AF5D120680D
:103CC000143050E8001F41F0010140E80012002AC2
:103CD000F5D12068143050E8001F41F0400140E861
:103CE0000012002AF5D1002038BD00007D390008FF
:103CF000033A00083339000881628285C2850021B9
:103D00004164222180F84210016921B10168CA682A
:103D100042F48072CA6001684A6942F001024A6155
:103D20000068C16841F02001C160002070472DE9A2
:103D3000F843984617460D460446089E24E0701C3A
:103D400022D0FEF7F3F8A0EB0800B0421AD8CEB1AB
:103D50002068C168490717D5802D15D0402D13D094
:103D60000168C94309070FD4016800254068009025
:103D70002046FFF755FE0820606484F8405001207B
:103D8000BDE8F8830320FBE72068006835EA0000FF
:103D900004D00020B842D2D00020F1E70120F9E79A
:103DA0000148FEF759BE0000E00000200148FEF780
:103DB00053BE00002801002010B5FFF715FCBDE838
:103DC00010400148FEF748BE70010020FEE70000E9
:103DD0000FB4054B10B503A9044A029800F0F2F89D
:103DE00010BC5DF814FB0000F5460008140000202C
:103DF0000907090E002804DB00F1E02080F8001418
:103E0000704700F00F0000F1E02080F8141D7047AB
:103E100002E008C8121F08C1002AFAD17047704793
:103E2000002001E001C1121F002AFBD170470000F1
:103E30002DE9FF5F82B00021DDE90430020DDDF8DD
:103E400040B0034318D044F61050A2F2FF32424370
:103E50001514119801281FD0A5EB0B00401C5FEA38
:103E6000000A4FF000064E4FDFF83891B04650463A
:103E700015D5CAF1000413E0119801244AA30128C2
:103E800001D16FEA0B010298119AC0E90031C0E933
:103E9000024206B0BDE8F09FCBF10000DFE7044628
:103EA0000021404A491842EB0450CDE9001012E0CD
:103EB000E00707D032463B4640464946FCF795FDB1
:103EC0008046894632463B4610461946FCF78DFD32
:103ED00006460F466410002CEAD1DDE90401DDE955
:103EE0000023BAF1000F06DAFCF77FFD42464B468D
:103EF000FCF77BFD05E0FCF7EAFD42464B46FCF78C
:103F0000E6FD04460E460022284BFCF773FE03D85C
:103F10004FF0FF30014607E00022254B2046314696
:103F2000FCF7BCFCFCF74EFE102409E0002C0ADB79
:103F30000A220023FCF744F9039B30321A55641E11
:103F400050EA0102F2D1641C039AC4F11103144433
:103F5000119A012A03D0012208430DD10AE0084337
:103F600004D000204FF0110B119072E7A3EB0B056A
:103F70006D1E0DE05B4504DD4FF0000205F101050B
:103F800004E003DA4FF00002A5F10105002AECD0AD
:103F900002981199C0E90231C0E9004579E70000B3
:103FA000000014400000F03F300000000000F0432B
:103FB0000000E03F30380A2801D20120704700207D
:103FC000704700002DE9FF4F95B09B468946064695
:103FD00000250FE2252877D100242746F84A012141
:103FE000059400E0044316F8013F203B01FA03F07A
:103FF0001042F7D130782A2811D06FF02F03307893
:10400000A0F13002092A16D8059A44F0020402EB06
:10401000820203EB42021044761C0590EFE759F848
:10402000042B0592002A03DA504244F40054059010
:1040300044F00204761C30782E2816D116F8010FB1
:1040400044F004042A280DD06FF02F023078A0F13C
:104050003003092B09D807EB870302EB4303C7188A
:10406000761CF3E759F8047B761C30786C280FD067
:1040700006DC4C2817D068280DD06A2814D104E03B
:10408000742810D07A280FD10DE044F400140AE00F
:1040900044F4801401E044F440147278824202D166
:1040A00004F58014761C761C307866280BD013DC5F
:1040B000582877D009DC002875D04528F6D0462846
:1040C000F4D047281AD19DE118E0632835D0642840
:1040D00079D0652812D195E1702873D008DC672863
:1040E000F1D069286FD06E280DD06F2806D1B5E0C9
:1040F00073282CD0752875D0782874D05A46179913
:1041000090476D1C75E1C4F30250022809D00328C2
:104110000DD0D9F8001004280DD00D6009F1040964
:1041200067E1D9F80010EA17C1E90052F6E7D9F8BB
:1041300000100D80F2E70D70F0E719F8041B8DF800
:10414000001000208DF80100EA46012003E059F834
:1041500004AB4FF0FF3061074FF0000102D40DE0D7
:1041600008F101018846B9420FDA8045F8DB1AF8F8
:1041700008100029F4D108E008F1010188468142C5
:10418000FADB1AF808100029F6D105985B46A0EB77
:10419000080721463846179A00F094FA284400EBA5
:1041A000080507E04DE029E10DE01AF8010B5A4639
:1041B00017999047B8F10108F7D25B462146384677
:1041C000179A13E142E00A220092C4F302524FF020
:1041D000000A022A08D059F804CB032A4FEAEC71EE
:1041E0000AD00DE029E02AE009F1070121F00702D9
:1041F000F2E802C1914609E00FFA8CFC4FEAEC713B
:10420000042A03D14FFA8CFC4FEAEC71002907DA3B
:104210000A460021DCF1000C61EB02012D2202E0D4
:10422000220504D52B228DF80420012203E0E207A9
:1042300001D02022F7E7904659E00A2102E010223F
:104240000DE010214FF0000A00910BE010224FF01A
:10425000000A44F004040827009203E008224FF00B
:10426000000A0092C4F30252022A05D059F804CB86
:104270000021032A08D009E009F1070121F0070213
:10428000F2E802C1914605E01FFA8CFC042A01D134
:104290000CF0FF0C4FF00008220728D5702806D03C
:1042A000009B83F0100353EA0A0305D00EE040227E
:1042B0008DF80420012208E05CEA010206D03022D9
:1042C0008DF804208DF8050002229046009B83F0B3
:1042D000080353EA0A030AD15CEA010201D162072A
:1042E00005D530228DF804204FF001087F1E582894
:1042F00004D034A003900EA802900DE036A0F9E798
:1043000053466046009AFBF75BFF84460398825C45
:104310000298401E029002705CEA0100F0D10298FF
:1043200006A9081A00F1200A600702D524F4803497
:1043300000E00127574502DDA7EB0A0000E000205E
:1043400000EB0A01009005984144401A0590E003F3
:1043500006D45B462146179A059800F0B3F9054448
:10436000002706E001A85A46C05D179990476D1CCA
:104370007F1C4745F6DBE0030CD55B462146179AC8
:10438000059800F09FF9054404E030205A4617993B
:1043900090476D1C0099481E00900029F5DC08E04C
:1043A000029802995A460078491C02911799904741
:1043B0006D1CBAF10001AAF1010AF1DC65E100000F
:1043C00009280100303132333435363738396162EB
:1043D00063646566000000003031323334353637AF
:1043E00038394142434445460000000000F058F986
:1043F0000544761C307800287FF4ECAD19B02846CF
:10440000BDE8F08F620700D4062709F1070222F009
:10441000070CFCE80223E14603F000485FEA080CC1
:1044200002D00FF2702C0DE05FEA045C02D50FF2AF
:10443000682C07E05FEAC47C02D00FF2602C01E038
:10444000AFF2700C4FF0FF3823F00043CDF850C0AE
:1044500065280CD006DC452809D046281DD0472801
:104460003DD13DE0662818D067287ED138E0002194
:10447000112F01DB112000E0781CCDE9000106A915
:104480000EA8FFF7D5FCDDE90F010E9A039100217C
:10449000009207F1010A04914DE04FF000400097AF
:1044A000CDE9011006A90EA8FFF7C2FCDDE90F0255
:1044B00003920E9B11990022DDF80CA00093049248
:1044C00011B9791C00EB010AB7EB0A0004D4C0F162
:1044D000FF3007F1010A0490AAEB0700019044E0C5
:1044E000012F00DA01270021112F01DD112000E04A
:1044F0003846CDE9000106A90EA8FFF799FCDDE9D1
:104500000F010E9A0391002104910092BA462107EF
:104510000CD40399514500DA8A46BAF1010F05DD42
:10452000009AAAF10101515C302908D0B84202DAA0
:1045300010F1040F06DA0121CDE9011015E0AAF10E
:104540000101E9E7002805DC049901440491AAEB84
:10455000000102E0411C514500DD8A460499401AE1
:10456000401C01904FF000400290200704D40198B5
:10457000504501DBCDF8048000208DF84F000298F3
:104580000DF14F07B0F1004F25D02B200E9002986F
:104590004FF0020800280CDA404202902D200E90C5
:1045A00007E00A210298FCF702F93031029007F87F
:1045B000011DB8F10001A8F10108F2DC0298002801
:1045C000EFD1791E0E980870307800F0200040F08E
:1045D000450007F8020D12A8C01B00F10708149847
:1045E000007800B1012000EB0A01019801EBE071B5
:1045F00005984144401A401E0590E00306D45B46EE
:104600002146179A059800F05DF805441498007843
:1046100018B15A46179990476D1CE00324D55B46A4
:104620002146179A059800F04DF805441CE00498BF
:10463000002807DBDDE90301884203DD0098405CC8
:10464000179901E0179930205A469047049805F1D0
:104650000105401C04900198401E019004D12E20B9
:104660005A46179990476D1CBAF10001AAF1010A48
:10467000DDDC05E017F8010B5A46179990476D1CD1
:10468000B8F10001A8F10108F4DC5B462146179A55
:104690000598ABE62D0000002B0000002000000074
:1046A0002DE9F041044600251E461746880404D42F
:1046B00005E039462020B0476D1C641EF9D5284618
:1046C000BDE8F0812DE9F041044600251E469046E4
:1046D000C80301D5302700E02027880404D505E071
:1046E00041463846B0476D1C641EF9D52846BDE8E2
:1046F000F081000013B54FF47A7301226946024835
:10470000FEF7CDFC00981CBDE0000020FDF71CFC6E
:10471000FFF70CF8FEF76CFDFEF72CFDFEF710FE20
:10472000FEF7BAFDFEF7D4FDFEF7EEFDFEF77EFDC7
:104730004FF47A70FDF7F0FAFEF776FE20A0FFF74F
:1047400047FB29A0FFF744FB31A0FFF741FBFEF731
:104750002FFFFCF74DFF3848FDF7D2FF6FF07F05C4
:10476000364CDFF8DC90DFF8DC802E460027A0789E
:10477000012812D1A77094F90000A84203D194F93E
:104780000100B04209D094F9011094F90000FEF73D
:104790000BFE94F9005094F90160E0780128E6D10D
:1047A000E770B8F8001040460029E0D099F84110B1
:1047B0002029DCD1028824492148FEF7C0FCD6E735
:1047C0000D0A3D3D3D3D3D3D3D3D3D3D3D3D3D3D7C
:1047D0003D3D3D3D3D3D3D3D3D3D3D3D3D3D3D3D09
:1047E0003D3D3D3D3D0D0A00202047696D62616CF5
:1047F0002053797374656D20496E697469616C69C1
:104800007A6564205375636365737320200D0A0015
:104810003D3D3D3D3D3D3D3D3D3D3D3D3D3D3D3DC8
:104820003D3D3D3D3D3D3D3D3D3D3D3D3D3D3D3DB8
:104830003D3D3D0D0A00000050000020000000201A
:10484000E00000201C000020980300200006101645
:104850000006101600000000000000000102030422
:10486000060708090000000001020304DDDDDDDDAC
:10487000DCBBBBDDDDDDDDDDDDDDDDDD98888888F1
:104880008888888877777777778888888555555698
:1048900066666666666666666668888883333332EF
:1048A00022222222222222222228888DCC4800087D
:1048B0000000002050000000103E00081C490008C5
:1048C00050000020480A0000203E000800000000C0
:1048D0000100000010000000000000000024F400AF
:1048E00000000000000000000000000000000000C8
:1048F0000000000000000000000000000000A040D8
:10490000320000009A99193ECDCC4C3D8FC2F53D46
:0C4910000000F04100000000000000006A
:040000050800018965
:00000001FF
